:020000040800F2
:1000000000A00020F5420008714200087342000879
:10001000754200087742000879420008000000009D
:100020000000000000000000000000007B4200080B
:100030007D420008000000007F4200088142000865
:100040004543000845430008454300084543000870
:100050004543000845430008454300084543000860
:100060004543000845430008454300084543000850
:100070004543000845430008454300084543000840
:100080004543000845430008454300084543000830
:100090004543000845430008454300084543000820
:1000A0004543000845430008454300084543000810
:1000B0004543000845430008454300084543000800
:1000C00045430008454300084543000845430008F0
:1000D00045430008454300084543000845430008E0
:1000E00045430008454300084543000845430008D0
:1000F00045430008454300084543000845430008C0
:10010000000000000000000000000000454300085F
:10011000454300084543000845430008454300089F
:10012000454300084543000845430008454300088F
:10013000454300084543000800000000000000009F
:1001400045430008454300084543000800000000FF
:10015000000000000000000000000000000000009F
:10016000000000000000000045430008454300086F
:1001700045430008000000000000000000000000EF
:080180000000000045430008E7
:1001900010B5054C237833B9044B13B10448AFF3C1
:1001A00000800123237010BD7802002000000000B1
:1001B0001881000808B5034B1BB103490348AFF38E
:1001C000008008BD000000007C02002018810008AB
:1001D00081F0004102E000BF83F0004330B54FEAF8
:1001E00041044FEA430594EA050F08BF90EA020F65
:1001F0001FBF54EA000C55EA020C7FEA645C7FEAF8
:10020000655C00F0E2804FEA5454D4EB5555B8BF1A
:100210006D420CDD2C4480EA020281EA030382EA8B
:10022000000083EA010180EA020281EA0303362D1D
:1002300088BF30BD11F0004F4FEA01314FF4801CF0
:100240004CEA113102D0404261EB410113F0004F02
:100250004FEA03334CEA133302D0524263EB4303B9
:1002600094EA050F00F0A780A4F10104D5F1200E57
:100270000DDB02FA0EFC22FA05F2801841F10001B2
:1002800003FA0EF2801843FA05F359410EE0A5F186
:1002900020050EF1200E012A03FA0EFC28BF4CF0B7
:1002A000020C43FA05F3C01851EBE37101F000456D
:1002B00007D54FF0000EDCF1000C7EEB00006EEB7A
:1002C0000101B1F5801F1BD3B1F5001F0CD3490804
:1002D0005FEA30004FEA3C0C04F101044FEA44525B
:1002E00012F5800F80F09A80BCF1004F08BF5FEAE2
:1002F000500C50F1000041EB045141EA050130BDC2
:100300005FEA4C0C404141EB010111F4801FA4F164
:100310000104E9D191F0000F04BF01460020B1FAB9
:1003200081F308BF2033A3F10B03B3F120020CDAF1
:100330000C3208DD02F1140CC2F10C0201FA0CF0CF
:1003400021FA02F10CE002F11402D8BFC2F1200C34
:1003500001FA02F120FA0CFCDCBF41EA0C019040EA
:10036000E41AA2BF01EB0451294330BD6FEA040433
:100370001F3C1CDA0C340EDC04F11404C4F120021E
:1003800020FA04F001FA02F340EA030021FA04F330
:1003900045EA030130BDC4F10C04C4F1200220FA87
:1003A00002F001FA04F340EA0300294630BD21FAC5
:1003B00004F0294630BD94F0000F83F4801306BF8B
:1003C00081F480110134013D4EE77FEA645C18BF7F
:1003D0007FEA655C29D094EA050F08BF90EA020F16
:1003E00005D054EA000C04BF1946104630BD91EA0E
:1003F000030F1EBF0021002030BD5FEA545C05D111
:100400004000494128BF41F0004130BD14F580044F
:100410003CBF01F5801130BD01F0004545F0FE41C3
:1004200041F470014FF0000030BD7FEA645C1ABFF8
:10043000194610467FEA655C1CBF0B46024650EA2F
:10044000013406BF52EA033591EA030F41F400215B
:1004500030BD00BF90F0000F04BF0021704730B5E1
:100460004FF4806404F132044FF000054FF00001B6
:1004700050E700BF90F0000F04BF0021704730B577
:100480004FF4806404F1320410F0004548BF40424C
:100490004FF000013EE700BF42004FEAE2014FEAA1
:1004A00031014FEA02701FBF12F07F4393F07F4F7C
:1004B00081F06051704732F07F4208BF704793F07F
:1004C0007F4F04BF41F40021704730B54FF4607492
:1004D00001F0004521F000411CE700BF50EA010295
:1004E00008BF704730B54FF000050AE050EA01023E
:1004F00008BF704730B511F0004502D5404261EBAE
:1005000041014FF4806404F132045FEA915C3FF4EE
:10051000D8AE4FF003025FEADC0C18BF03325FEA8B
:10052000DC0C18BF033202EBDC02C2F1200300FA3C
:1005300003FC20FA02F001FA03FE40EA0E0021FA61
:1005400002F11444BDE600BF70B54FF0FF0C4CF44F
:10055000E06C1CEA11541DBF1CEA135594EA0C0F01
:1005600095EA0C0F00F0DEF82C4481EA030621EA3C
:100570004C5123EA4C5350EA013518BF52EA033577
:1005800041F4801143F4801338D0A0FB02CE4FF029
:100590000005E1FB02E506F00042E0FB03E54FF059
:1005A0000006E1FB03569CF0000F18BF4EF0010E51
:1005B000A4F1FF04B6F5007F64F5407404D25FEA4D
:1005C0004E0E6D4146EB060642EAC62141EA555100
:1005D0004FEAC52040EA5E504FEACE2EB4F1FD0C42
:1005E00088BFBCF5E06F1ED8BEF1004F08BF5FEAC0
:1005F000500E50F1000041EB045170BD06F0004672
:1006000046EA010140EA020081EA0301B4EB5C041E
:10061000C2BFD4EB0C0541EA045170BD41F4801116
:100620004FF0000E013C00F3AB8014F1360FDEBF3B
:10063000002001F0004170BDC4F10004203C35DA17
:100640000C341BDC04F11404C4F1200500FA05F39A
:1006500020FA04F001FA05F240EA020001F000423B
:1006600021F0004110EBD37021FA04F642EB0601B1
:100670005EEA430E08BF20EAD37070BDC4F10C04DB
:10068000C4F1200500FA04F320FA05F001FA04F29F
:1006900040EA020001F0004110EBD37041F100018B
:1006A0005EEA430E08BF20EAD37070BDC4F1200596
:1006B00000FA05F24EEA020E20FA04F301FA05F2FE
:1006C00043EA020321FA04F001F0004121FA04F2A6
:1006D00020EA020000EBD3705EEA430E08BF20EA76
:1006E000D37070BD94F0000F0FD101F000464000B0
:1006F00041EB010111F4801F08BF013CF7D041EA32
:10070000060195F0000F18BF704703F00046520035
:1007100043EB030313F4801F08BF013DF7D043EA06
:100720000603704794EA0C0F0CEA135518BF95EABC
:100730000C0F0CD050EA410618BF52EA4306D1D143
:1007400081EA030101F000414FF0000070BD50EA62
:10075000410606BF1046194652EA430619D094EAEC
:100760000C0F02D150EA013613D195EA0C0F05D1D6
:1007700052EA03361CBF104619460AD181EA03012A
:1007800001F0004141F0FE4141F470014FF00000E2
:1007900070BD41F0FE4141F4780170BD70B54FF07D
:1007A000FF0C4CF4E06C1CEA11541DBF1CEA1355FD
:1007B00094EA0C0F95EA0C0F00F0A7F8A4EB0504DF
:1007C00081EA030E52EA03354FEA013100F08880D6
:1007D0004FEA03334FF0805545EA131343EA12639F
:1007E0004FEA022245EA111545EA10654FEA002654
:1007F0000EF000419D4208BF964244F1FD0404F50D
:10080000407402D25B084FEA3202B61A65EB030568
:100810005B084FEA32024FF480104FF4002CB6EB25
:10082000020E75EB030E22BFB61A754640EA0C00A5
:100830005B084FEA3202B6EB020E75EB030E22BFE5
:10084000B61A754640EA5C005B084FEA3202B6EB26
:10085000020E75EB030E22BFB61A754640EA9C00E5
:100860005B084FEA3202B6EB020E75EB030E22BFB5
:10087000B61A754640EADC0055EA060E18D04FEA73
:10088000051545EA16754FEA06164FEAC30343EA13
:1008900052734FEAC2025FEA1C1CC0D111F4801FE0
:1008A0000BD141EA00014FF000004FF0004CB6E7D9
:1008B00011F4801F04BF01430020B4F1FD0C88BF78
:1008C000BCF5E06F3FF6AFAEB5EB030C04BFB6EB83
:1008D000020C5FEA500C50F1000041EB045170BD76
:1008E0000EF0004E4EEA113114EB5C04C2BFD4EBA3
:1008F0000C0541EA045170BD41F480114FF0000E27
:10090000013C90E645EA060E8DE60CEA135594EAA2
:100910000C0F08BF95EA0C0F3FF43BAF94EA0C0FA5
:100920000AD150EA01347FF434AF95EA0C0F7FF41A
:1009300025AF104619462CE795EA0C0F06D152EA6E
:1009400003353FF4FDAE1046194622E750EA410652
:1009500018BF52EA43067FF4C5AE50EA41047FF463
:100960000DAF52EA43057FF4EBAE12E74FF0FF3CC8
:1009700006E000BF4FF0010C02E000BF4FF0010C99
:100980004DF804CD4FEA410C7FEA6C5C4FEA430C12
:1009900018BF7FEA6C5C1BD001B050EA410C0CBF61
:1009A00052EA430C91EA030F02BF90EA020F0020C3
:1009B000704710F1000F91EA030F58BF994208BF2A
:1009C00090422CBFD8176FEAE37040F001007047E7
:1009D0004FEA410C7FEA6C5C02D150EA013C07D13E
:1009E0004FEA430C7FEA6C5CD6D152EA033CD3D089
:1009F0005DF8040B704700BF8446104662468C4683
:100A00001946634600E000BF01B5FFF7B7FF0028B5
:100A100048BF10F1000F01BD4DF808EDFFF7F4FFDE
:100A20000CBF012000205DF808FB00BF4DF808ED69
:100A3000FFF7EAFF34BF012000205DF808FB00BF8C
:100A40004DF808EDFFF7E0FF94BF012000205DF8AE
:100A500008FB00BF4DF808EDFFF7CEFF94BF012063
:100A600000205DF808FB00BF4DF808EDFFF7C4FF5C
:100A700034BF012000205DF808FB00BF4FEA410CA5
:100A80007FEA6C5C02D150EA013C0AD14FEA430C88
:100A90007FEA6C5C02D152EA033C02D14FF00000C5
:100AA00070474FF001007047034613F8012B002AEE
:100AB000FBD1181A01387047000000000000000048
:100AC00001F0FF01102A2BDB10F0070F08D010F8FF
:100AD000013B013A8B422DD010F0070F42B3F6D103
:100AE000F0B441EA012141EA014122F007047FF01C
:100AF00000070023F0E80256083C85EA010586EA73
:100B0000010685FA47F5A3FA87F586FA47F6A5FAAE
:100B100087F68EB9EED1F0BC01F0FF0102F00702BA
:100B200032B110F8013B013A83EA010313B1F8D165
:100B30000020704701387047002D06BF3546033846
:100B4000073815F0010F07D1013015F4807F02BF7F
:100B5000013015F4C03F0130F0BC0138704700BFD0
:100B60004FEA410212F5001215D211D56FF47873D5
:100B7000B3EB625212D94FEAC12343F0004343EA78
:100B8000505311F0004F23FA02F018BF4042704753
:100B90004FF00000704750EA013005D111F00040DD
:100BA00008BF6FF0004070474FF00000704700BF73
:100BB0004A0011D212F5001211D20DD56FF47873DC
:100BC000B3EB62520ED44FEAC12343F0004343EA31
:100BD000505323FA02F070474FF00000704750EA7C
:100BE000013002D14FF0FF3070474FF000007047E6
:100BF0004FEA4102B2F1E04324BFB3F5001CDCF13F
:100C0000FE5C0DD901F0004C4FEAC0024CEA507076
:100C1000B2F1004F40EB830008BF20F001007047A5
:100C200011F0804F21D113F13872BCBF01F00040A8
:100C3000704741F480114FEA5252C2F11802C2F1DA
:100C4000200C10FA0CF320FA02F018BF40F001005B
:100C50004FEAC1234FEAD32303FA0CFC40EA0C000D
:100C600023FA02F34FEA4303CCE77FEA625307D14A
:100C700050EA01331EBF4FF0FE4040F44000704781
:100C800001F0004040F0FE4040F40000704700BF1B
:100C900010B504460E4B18784FF47A73B3FBF0F39B
:100CA0000C4A1068B0FBF3F000F0C8F868B90F2CDC
:100CB00001D901200AE0002221464FF0FF3000F068
:100CC00061F8034B5C60002000E0012010BD00BF14
:100CD000000000209C00002008B5074A136843F07C
:100CE00010031360032000F02FF80020FFF7D0FF5F
:100CF00003F076FA002008BD00200240034A116884
:100D0000034B1B780B441360704700BF580300204F
:100D100000000020014B1868704700BF58030020F6
:100D200038B50446FFF7F6FF0546B4F1FF3F02D0A1
:100D3000044B1B781C44FFF7EDFF401BA042FAD385
:100D400038BD00BF0000002010B50446C31E042BB0
:100D50000FD80A4AD36823F4E0631B041B0C240257
:100D600004F4E064234343F0BF6343F40033D360EF
:100D700010BDBC21024802F02BFFEAE700ED00E0C5
:100D80007887000870B505460C4616460F2A25D808
:100D90000F2C28D81B4BDB68C3F30223C3F10702D7
:100DA000042A28BF0422191D062921D9033B4FF02C
:100DB000FF3101FA02F224EA02049C4001FA03F333
:100DC00026EA03063443002D14DB2401E4B205F1C6
:100DD000604505F5614585F8004370BDD4210A489A
:100DE00002F0F6FED4E7D521074802F0F1FED1E784
:100DF0000023DCE705F00F052401E4B2034B5C554A
:100E0000EBE700BF00ED00E07887000814ED00E09C
:100E100010B5041E08DB04F01F026409012393408F
:100E2000044A42F8243010BDE821034802F0D0FE05
:100E3000F1E700BF00E100E0788700080138B0F179
:100E4000807F0AD2064B5860064AF02182F82310B0
:100E50000020986007221A6070470120704700BF89
:100E600010E000E000ED00E010B50446042800D0DA
:100E700038B9042C0BD0094A136823F0040313601B
:100E800010BD40F2E111064802F0A2FEF1E7034A6C
:100E9000136843F004031360F2E700BF10E000E0C2
:100EA00078870008704708B5FFF7FCFF08BD000011
:100EB0002DE9F04782B006460C46B0F1904F16D0AF
:100EC000A44B984213D003F5806398420FD003F5EA
:100ED000806398420BD003F58063984207D003F5F6
:100EE0008063984203D0C3219B4802F071FE2368BF
:100EF0009AB212B11B0C1B041BB1C421964802F01C
:100F000067FE6368012B1ED9112B1CD0022B1AD04F
:100F1000122B18D0914A934215D002F580129342B9
:100F200011D002F5801293420DD0A2F5F81293422F
:100F300009D002F58012934205D002F58012934247
:100F400001D0032B04D1A368022B06D800254AE068
:100F5000C521814802F03CFEF5E7C6217E4802F03B
:100F600037FEF3E7D6217C4802F032FE6DE0EA213D
:100F7000794802F02DFE98E0042300E000238B4026
:100F800003430232764941F82230764B1A68FB431C
:100F900003EA0201606810F4803F01D047EA0201D1
:100FA000704A1160526803EA0201606810F4003F61
:100FB00001D047EA02016B4A5160926803EA0201DC
:100FC000606810F4801F01D047EA0201654A916011
:100FD000D2681340616811F4001F01D047EA020390
:100FE000604AD3600135276837FA05F300F0AF8017
:100FF0004FF0010808FA05F818EA0707F2D063680D
:10100000022B01D0122B30D1B6F1904F16D0514B9C
:101010009E4213D003F580639E420FD003F5806398
:101020009E420BD003F580639E4207D003F5806398
:101030009E4203D0D521484802F0CAFD23690C2BFB
:1010400003D90E2B01D00F2B8CD1EA08083256F8A9
:10105000220005F0070399000F238B4020EA0300CC
:1010600023698B40034346F8223032684FEA450A31
:101070004FF0030909FA0AF96FEA090909EA0202BD
:10108000636803F0030303FA0AF3134333606368EE
:101090005A1E012A03D9112B01D0122B17D1E36854
:1010A000012B02D9032B7FF462AFB26809EA020276
:1010B000E36803FA0AF31343B360736823EA08088A
:1010C0006368C3F30013AB4043EA08037360F3683B
:1010D00009EA0309A36803FA0AF343EA0903F36080
:1010E000636813F0805F3FF47DAF1F4B9A6942F055
:1010F00001029A619B6903F001030193019BAA0815
:10110000911C174B53F8210005F0030399000F239E
:101110008B4020EA0300B6F1904F3FF42FAF0D4B08
:101120009E420ED003F580639E420CD003F580638F
:101130009E420AD003F580639E423FF41DAF052313
:101140001DE701231BE7022319E7032317E702B07A
:10115000BDE8F08700040048B487000800001110C3
:10116000000001400004014000100240F8B50446B0
:101170000D46B0F1904F17D0494B984214D003F56B
:101180008063984210D003F5806398420CD003F539
:101190008063984208D003F58063984204D04FF4EE
:1011A000A071404802F014FDABB213B12B0C1B042C
:1011B00023B140F241113B4802F00AFD002307E051
:1011C000042000E0002000FA02F28A424BD00133F2
:1011D00035FA03F263D001229A4012EA050CF6D0E8
:1011E00020685E000321B140C94308402060DF0849
:1011F000083754F827E003F0070080000F2606FAAE
:1012000000F02EEA000044F82700A0680840A06023
:10121000606820EA02026260E2681140E1609F08B3
:10122000B91C214A52F8211003F0030292009640A3
:101230003140B4F1904FC5D0194884420DD000F52B
:10124000806084420BD000F58060844209D000F5B4
:1012500080608442B4D00520B5E70120B3E70220C6
:10126000B1E70320AFE71048BA1C50F8221021EA7A
:10127000060640F822600D490A686FEA0C0C02EA83
:101280000C020A604A680CEA02024A608A680CEAA8
:1012900002028A60CA680CEA0202CA6097E7F8BDD7
:1012A00000040048B4870008000001400004014029
:1012B00070B5054614460E4621B1012C08D86CB90C
:1012C000AE6270BD4FF4D871054802F081FCF4E7BE
:1012D00040F2B111024802F07BFCF0E7AE61F0E7AA
:1012E000B487000803689A6912F0020F01D0002247
:1012F0009A6203689A6912F0010F03D19A6942F069
:1013000001029A61704700002DE9F04180460C46C9
:1013100017461E46069D0368224A934208D002F5EE
:101320008062934204D041F268211F4802F050FCD1
:10133000B6F1807F03D0B6F1007F00D02EBB1B4BEF
:101340009D4208D0A3F5E0539D4204D0A3F58063ED
:101350009D4200D0FDB9D8F800104B686A0D02F428
:10136000806242F07F7242F4583242F47F7242F05F
:10137000030223EA0203C4F3090444EA07443443A2
:101380002C431C434C60BDE8F08141F269210648C2
:1013900002F01EFCD3E741F26A21034802F018FC78
:1013A000D9E700BF00540040F087000800400080EB
:1013B00070B504460D46164603689B6913F0100F7E
:1013C00017D023689A6912F0200F14D1B5F1FF3FAE
:1013D000F7D025B1FFF79EFC801BA842F1D920234E
:1013E00084F84130002384F8423084F840300320F0
:1013F0001EE000201CE01022DA6123682025DD6158
:101400002046FFF76FFF2268536823F0FF7323F431
:101410008B3323F4FF7323F00103536004236364CD
:1014200084F84150002384F8423084F84030012091
:1014300070BD70B504460D46164623689B6913F0CF
:10144000020F1CD1324629462046FFF7B1FFC0B932
:10145000B5F1FF3FF1D025B1FFF75CFC801BA8423E
:10146000EBD9636C43F020036364202384F841309C
:10147000002384F8423084F84030032000E000204C
:1014800070BD0120FCE7F8B505460F4616461C4620
:101490002B689B6937EA03030CBF01230023B34287
:1014A00013D1B4F1FF3FF3D02CB1FFF733FC069B0F
:1014B000C01AA042ECD9202385F84130002385F8DA
:1014C000423085F84030032000E00020F8BD0000E5
:1014D00070B582B0044616461D461E4B00934FF071
:1014E0008073EAB2FFF710FF079A06992046FFF7CC
:1014F000A0FF30B1636C042B27D10123184602B042
:1015000070BD012D0FD12368F6B29E62079B009338
:10151000069B002280212046FFF7B5FF03460028E6
:10152000ECD00323EAE72368320A9A62079A069905
:101530002046FFF77EFF20B1636C042B07D1012307
:10154000DCE72368F6B29E62E0E70323D6E70323D5
:10155000D4E700BF0020008070B582B00446164674
:101560001D461D4B00930023EAB2FFF7CDFE079AFC
:1015700006992046FFF75DFF30B1636C042B27D13D
:101580000123184602B070BD012D0FD12368F6B2B9
:101590009E62079B0093069B002240212046FFF796
:1015A00072FF03460028ECD00323EAE72368320ADF
:1015B0009A62079A06992046FFF73BFF20B1636CB9
:1015C000042B07D10123DCE72368F6B29E62E0E733
:1015D0000323D6E70323D4E70020008070B5054637
:1015E0000C4616462B689B6913F0200F19D1324622
:1015F00021462846FFF7DCFEA8B924B1FFF78AFB95
:10160000801BA042EED96B6C43F020036B64202357
:1016100085F84130002385F8423085F840300320BA
:1016200070BD0020FCE70120FAE77047002800F0B9
:10163000AF8010B504460368564A934208D002F5BD
:101640008062934204D040F2A311534802F0C0FAE2
:10165000A368B3F5806F60D2E368013B012B62D8C9
:10166000236913B1B3F5004F63D16369FF2B66D8CB
:10167000A369072B69D8E36913B1B3F5002F6AD1C9
:10168000236A13B1B3F5003F6BD194F84130002BBE
:101690006DD0242384F841302268136823F00103BD
:1016A00013606368226823F0706313612268936893
:1016B00023F400439360E368012B5ED0A3682268A3
:1016C00043F404439360E368022B5CD022685368C0
:1016D00043F0007343F4004353602268D36823F45B
:1016E0000043D360236962691343A169226843EA16
:1016F0000123D360E369216A22680B4313602268E7
:10170000136843F00103136000206064202384F811
:101710004130206384F8420010BD4FF4D2711E485E
:1017200002F056FA98E740F2A5111B4802F050FA71
:1017300096E74FF4D371184802F04AFA95E740F261
:10174000A711154802F044FA92E74FF4D4711248F9
:1017500002F03EFA8FE740F2A9110F4802F038FA82
:101760008EE74FF4D5710C4802F032FA8DE784F819
:1017700040302046FFF759FF8BE7A368226843F407
:10178000004393609FE723684FF400625A609DE72F
:101790000120704700540040F087000870470000A7
:1017A00018B310B504460368114A934208D002F5F5
:1017B0008062934204D04FF4FD710E4802F008FAA3
:1017C000242384F841302268136823F00103136056
:1017D0002046FFF7E3FF0020606484F841002063A7
:1017E00084F8420084F8400010BD0120704700BF1B
:1017F00000540040F08700082DE9F04782B004460D
:101800000F4690461D46BDF82C60013B9BB2012B54
:1018100042D894F84130DBB2202B40F0CF800A9BB5
:10182000002B00F0D080002E00F0CF8094F84030E4
:10183000012B00F0CC804FF0010A84F840A0FFF7A4
:1018400069FA81460090192352464FF40041204620
:10185000FFF719FE002840F0BC80212384F84130B6
:10186000402384F84230002363640A9A62626685EA
:101870006363CDF804900C9B00932B464246394697
:101880002046FFF725FE90B1636C042B0AD100239C
:1018900084F84030534692E040F2CE61514802F065
:1018A00097F9B6E7002384F84030032387E0638D7F
:1018B0009BB2FF2B0AD9FF222285002300934FF011
:1018C000807339462046FFF71FFD21E0628D92B2FA
:1018D0002285002300934FF00073D2B23946204690
:1018E000FFF712FD14E0636C042B74D1012366E052
:1018F000628D92B22285002300934FF00073D2B222
:1019000039462046FFF700FD638D9BB2002B33D094
:101910004A460C992046FFF78CFD0028E3D1636A04
:101920005A1C626222681B789362638D013B9BB2F2
:101930006385238D013B9BB22385002BE4D1638D0E
:101940009BB2002BE0D0CDF800900C9B00228021B0
:101950002046FFF798FD00283FD1638D9BB2FF2BF7
:10196000C6D9FF222285002300934FF080733946A9
:101970002046FFF7C9FCC7E74A460C992046FFF707
:101980002DFE034620B1636C042B28D1012316E001
:1019900022682021D1612068426822F0FF7222F47F
:1019A0008B3222F4FF7222F00102426084F841106F
:1019B000002284F8422084F8402000E002231846E8
:1019C00002B0BDE8F0870123F9E70123F7E702231E
:1019D000F5E70323F3E70323F1E70323EFE703230B
:1019E000EDE700BFF08700082DE9F04782B004461C
:1019F000894690461D46BDF82C60013B9BB2012BE9
:101A000041D894F84130DBB2202B40F0CA800A9BC9
:101A1000002B00F0CB80002E00F0CA8094F84030FC
:101A2000012B00F0C7804FF0010A84F840A0FFF7B7
:101A300071F907460090192352464FF400412046A1
:101A4000FFF721FD002840F0B780222384F84130C1
:101A5000402384F84230002363640A9A62626685F8
:101A6000636301970C9B00932B46424649462046F0
:101A7000FFF772FD90B1636C042B0AD1002384F848
:101A8000403053468EE040F267714F4802F0A0F8B4
:101A9000B7E7002384F84030032383E0638D9BB2D3
:101AA000FF2B0AD9FF222285484B00934FF0807309
:101AB00049462046FFF728FC1CE0628D92B2228541
:101AC000424B00934FF00073D2B249462046FFF7D5
:101AD0001BFC0FE0628D92B22285002300934FF031
:101AE0000073D2B249462046FFF70EFC638D9BB2CD
:101AF000002B34D000970C9B002204212046FFF7D6
:101B0000C2FC00285AD123685A6A636A591C616270
:101B10001A70238D013B9BB22385628D013A92B2EC
:101B20006285002BE2D1638D9BB2002BDED0009743
:101B30000C9B002280212046FFF7A5FC00283FD106
:101B4000638D9BB2FF2BC5D9FF2222850023009312
:101B50004FF0807349462046FFF7D6FBC6E73A466A
:101B60000C992046FFF73AFD034620B1636C042B25
:101B700028D1012316E022682021D1612068426823
:101B800022F0FF7222F48B3222F4FF7222F0010263
:101B9000426084F84110002284F8422084F84020FA
:101BA00000E00223184602B0BDE8F0870123F9E700
:101BB0000123F7E70223F5E70323F3E70323F1E724
:101BC0000323EFE70323EDE7F087000800240080FC
:101BD00090F8410070470000002800F08A8370B53B
:101BE00082B00446036813B113F00F0F2BD02368A3
:101BF00013F0010F4FD063682BB1B3F5803F02D0D3
:101C0000B3F5A02F25D1B44B5B6803F00C03042B74
:101C10002AD0B14B5B6803F00C03082B1FD063681C
:101C2000B3F5803F7CD0002B40F0A68003F18043C9
:101C300003F504331A6822F480321A601A6822F419
:101C400080221A6071E040F25711A44801F0C0FFF1
:101C5000CDE740F25D11A14801F0BAFFD3E79E4BFA
:101C60005B6813F4803FDAD04FF4003393FAA3F3A8
:101C7000994B19684FF4003393FAA3F3B3FA83F343
:101C800003F01F03012202FA03F30B4203D063683F
:101C9000002B00F03083236813F0020F00F0DA808D
:101CA0002369012B00F2A08063691F2B00F2A28040
:101CB000894B5B6813F00C0F00F0A880864B5B68C3
:101CC00003F00C03082B00F09B802369002B00F02D
:101CD0000981012292FAA2F3B3FA83F303F1845348
:101CE00003F584139B001A60FFF714F805460223DE
:101CF00093FAA3F3784B1968022393FAA3F3B3FA88
:101D000083F303F01F03012202FA03F30B4240F0B6
:101D1000D380FEF7FFFF401B0228E8D90320F1E241
:101D20006D4A136843F4803313606B4AD36A23F01F
:101D30000F03A1680B43D3626368002B36D0FEF714
:101D4000E9FF05464FF4003393FAA3F3624B196899
:101D50004FF4003393FAA3F3B3FA83F303F01F03B2
:101D6000012202FA03F30B4295D1FEF7D3FF401B89
:101D70006428E7D90320C5E2B3F5A02F09D0564B5C
:101D80001A6822F480321A601A6822F480221A60DB
:101D9000CBE703F18043A3F53C331A6842F4802279
:101DA0001A601A6842F480321A60BEE7FEF7B2FF8A
:101DB00005464FF4003393FAA3F3474B19684FF4E9
:101DC000003393FAA3F3B3FA83F303F01F03012262
:101DD00002FA03F30B423FF45EAFFEF79BFF401B9A
:101DE0006428E6D903208DE240F295113B4801F0CA
:101DF000EFFE59E74FF4CB71384801F0E9FE57E7A1
:101E0000354B5B6813F4803F7FF45FAF022393FA96
:101E1000A3F3314B1968022393FAA3F3B3FA83F3C4
:101E200003F01F03012202FA03F30B4204D02369DB
:101E3000934201D0012065E22748036823F0F803AC
:101E40006169F82292FAA2F2B2FA82F201FA02F27F
:101E500013430360236813F0080F00F09880A36910
:101E6000012B66D8A369002B69D0012191FAA1F258
:101E7000B2FA82F21A4B13449B001960FEF74AFF34
:101E80000546022393FAA3F293FAA3F293FAA3F27C
:101E9000114A516A93FAA3F3B3FA83F303F01F03D1
:101EA000012202FA03F30B4271D1FEF733FF401B0C
:101EB0000228E6D9032025E20748036823F0F80347
:101EC0006169F82292FAA2F2B2FA82F201FA02F2FF
:101ED00013430360BEE700BF0010024028880008DB
:101EE00020819010012393FAA3F3B3FA83F303F153
:101EF000845303F584139B0000221A60FEF70AFF47
:101F00000546022393FAA3F3B94B1968022393FA07
:101F1000A3F3B3FA83F303F01F03012202FA03F3DE
:101F20000B4297D0FEF7F6FE401B0228E9D90320AA
:101F3000E8E14FF4EB71AF4801F04AFE92E701226D
:101F400092FAA2F2B2FA82F2AB4B13449B00002247
:101F50001A60FEF7DFFE0546022393FAA3F293FA16
:101F6000A3F293FAA3F2A24A516A93FAA3F3B3FA43
:101F700083F303F01F03012202FA03F30B4206D09E
:101F8000FEF7C8FE401B0228E6D90320BAE1236809
:101F900013F0040F00F0C080E368012B01D9052B7A
:101FA00026D1934BDB6913F0805F27D1904BDA6920
:101FB00042F08052DA61DB6903F080530193019BA8
:101FC00001258E4B1B6813F4807F19D0E368012B29
:101FD0002AD0002B34D103F1804303F504331A6A6D
:101FE00022F001021A621A6A22F004021A6220E048
:101FF00040F202217F4801F0EBFDD2E70025E0E747
:102000007E4A136843F480731360FEF783FE06462E
:102010007A4B1B6813F4807FD8D1FEF77BFE801BC0
:102020006428F5D903206DE1714A136A43F0010376
:102030001362E368002B41D0FEF76CFE06462BE0EE
:10204000052B09D06A4B1A6A22F001021A621A6A39
:1020500022F004021A62ECE7654B1A6A42F00402AD
:102060001A621A6A42F001021A62E2E7604B196AC8
:10207000022393FAA3F3B3FA83F303F01F030122BD
:1020800002FA03F3194245D1FEF744FE801B41F2E8
:102090008833984200F23181022393FAA3F293FA33
:1020A000A3F3B3FA83F35B0943F00203022BDDD001
:1020B000022393FAA3F34E4B596AD9E7FEF72AFE9F
:1020C000064615E04A4B196A022393FAA3F3B3FAC2
:1020D00083F303F01F03012202FA03F3194219D01C
:1020E000FEF718FE801B41F28833984200F2078108
:1020F000022393FAA3F293FAA3F3B3FA83F35B09EF
:1021000043F00203022BDDD0022393FAA3F3384BF2
:10211000596AD9E7002D73D1E369022B76D8E369B8
:10212000002B00F0EE80324A526802F00C02082ABE
:1021300000F0EA80022B40F0B080236A13B1B3F5BF
:10214000803F69D1636A4BB3B3F5802F26D0B3F5D6
:10215000002F23D0B3F5402F20D0B3F5801F1DD022
:10216000B3F5A01F1AD0B3F5C01F17D0B3F5E01F09
:1021700014D0B3F5001F11D0B3F5101F0ED0B3F576
:10218000201F0BD0B3F5301F08D0B3F5401F05D08A
:10219000B3F5501F02D0B3F5601F43D14FF08073E9
:1021A00093FAA3F3B3FA83F303F1845303F584138F
:1021B0009B0000221A60FEF7ADFD05464FF000734C
:1021C00093FAA3F30A4B19684FF0007393FAA3F341
:1021D000B3FA83F303F01F03012202FA03F3194257
:1021E00026D0FEF797FD401B0228E7D9032089E09F
:1021F00000100240288800082081901000700040E4
:10220000424AD36923F08053D36185E740F24621E7
:102210003F4801F0DDFC82E740F24F213C4801F0ED
:10222000D7FC8FE74FF41471394801F0D1FCB5E7C2
:1022300036494B6823F47413626A206A02431343DD
:102240004B604FF0807393FAA3F3B3FA83F303F177
:10225000845303F584139B0001221A60FEF75AFD94
:1022600004464FF0007393FAA3F3284B19684FF01C
:10227000007393FAA3F3B3FA83F303F01F0301226D
:1022800002FA03F3194206D1FEF744FD001B0228AF
:10229000E7D9032036E0002034E04FF0807393FA52
:1022A000A3F3B3FA83F303F1845303F584139B0080
:1022B00000221A60FEF72EFD04464FF0007393FAD9
:1022C000A3F3124B19684FF0007393FAA3F3B3FA18
:1022D00083F303F01F03012202FA03F3194206D02D
:1022E000FEF718FD001B0228E7D903200AE00020B2
:1022F00008E001207047012004E0032002E00320F1
:1023000000E0002002B070BD0120FBE70010024099
:102310002888000810B4174B5C6804F00C03082BE5
:1023200026D104F470124FF4701393FAA3F3B3FAA6
:1023300083F322FA03F31049C85C0E4BDB6A03F007
:102340000F030F2292FAA2F2B2FA82F2D3400B44A8
:102350001A7C14F4803F05D1084B03FB00F05DF8B4
:10236000044B7047064BB3FBF2F300FB03F0F6E7B8
:102370000348F4E7001002403081000800093D00E6
:1023800000127A00002800F01B8170B504460D464B
:10239000036813F00F0F14D0022D18D88A4B1B6856
:1023A00003F00703AB4218D2874A136823F00703F0
:1023B0002B431360136803F00703AB420DD00120D9
:1023C00070BD40F2BA21814801F002FCE4E740F21E
:1023D000BB217E4801F0FCFBE0E7236813F0020F0D
:1023E00018D0A3687BB1802B0DD0902B0BD0A02BE5
:1023F00009D0B02B07D0C02B05D0D02B03D0E02BB9
:1024000001D0F02B3ED1724A536823F0F003A1684B
:102410000B435360236813F0010F69D06368022BEC
:1024200036D86368012B39D0022B4CD0022292FAA5
:10243000A2F2674A1068022292FAA2F2B2FA82F27B
:1024400002F01F02012101FA02F2104200F0BA80EC
:102450005F494A6822F0030213434B60FEF75AFCBF
:1024600006465B4B5B6803F00C036268B3EB820FBC
:102470003ED0FEF74FFC801B41F288339842F0D9E2
:1024800003209DE740F2D221504801F0A1FBBAE7BA
:1024900040F2D9214D4801F09BFBC2E74FF40032D6
:1024A00092FAA2F24A4A10684FF4003292FAA2F26B
:1024B000B2FA82F202F01F02012101FA02F2024294
:1024C000C6D101207CE74FF0007292FAA2F2404A96
:1024D00010684FF0007292FAA2F2B2FA82F202F0A1
:1024E0001F02012101FA02F21042B1D1012067E777
:1024F000354B1B6803F00703AB420CD9324A136813
:1025000023F007032B431360136803F00703AB4268
:1025100001D0012054E7236813F0040F14D0E368BE
:102520005BB1B3F5806F08D0B3F5A06F05D0B3F5FC
:10253000C06F02D0B3F5E06F36D1254A536823F45B
:10254000E063E1680B435360236813F0080F15D074
:1025500023695BB1B3F5806F08D0B3F5A06F05D0E8
:10256000B3F5C06F02D0B3F5E06F23D1184A5368BA
:1025700023F46053216943EAC1035360FFF7CAFEA5
:10258000134B5B6803F0F003F02292FAA2F2B2FA66
:1025900082F2D3400F4AD35CD8400F4B1860002022
:1025A000FEF776FB00200BE740F21531074801F0FB
:1025B0000FFBC2E74FF44771044801F009FBD5E770
:1025C000012070470120FBE6002002402888000817
:1025D00000100240608700089C000020014B186832
:1025E000704700BF9C000020F8B505460F46164610
:1025F0001C4639E02CB1FEF78DFB069BC01AA042A9
:1026000032D32A68536823F0E00353606B68B3F554
:10261000827F0BD0AB6AB3F5005F14D0012385F83D
:102620005D30002385F85C30032025E0AB68B3F50E
:10263000004F02D0B3F5806FECD12A68136823F005
:1026400040031360E6E72A68136823F4005313601D
:102650002A68136843F400531360DFE70123B34291
:1026600009D0B4F1FF3FC5D12B689B6837EA03035B
:10267000F4D00023F3E70020F8BDF0B583B007469F
:102680000C4615461E4602E0B6F1FF3F10D13A68EF
:1026900093682340AB423FD0B4F5C06FF4D1002D16
:1026A000F2D1137BDBB28DF807309DF80730EBE7F2
:1026B0002EB1FEF72FFB089BC01AB042E7D33A6851
:1026C000536823F0E00353607B68B3F5827F0BD03F
:1026D000BB6AB3F5005F14D0012387F85D30002397
:1026E00087F85C30032018E0BB68B3F5004F02D0D8
:1026F000B3F5806FECD13A68136823F040031360A0
:10270000E6E73A68136823F4005313603A681368E5
:1027100043F400531360DFE7002003B0F0BD70B551
:1027200082B004460D46164600920B4600224FF436
:10273000C051FFF7A2FFB8B900962B4600228021B6
:102740002046FFF751FFB8B900962B4600224FF400
:10275000C0612046FFF791FF034650B1236E43F05E
:1027600020032366032304E0236E43F02003236643
:102770000323184602B070BD236E43F02003236686
:102780000323F6E7002800F0148110B5044603681F
:10279000894A93420CD0A2F57842934208D002F5C0
:1027A0008062934204D040F21B11844801F010FA79
:1027B00063681BB1B3F5827F40F0B380A36833B187
:1027C000B3F5806F03D0B3F5004F40F0B080E368FD
:1027D000B3F5706F24D0B3F5606F21D0B3F5506FAF
:1027E0001ED0B3F5406F1BD0B3F5306F18D0B3F5E2
:1027F000206F15D0B3F5106F12D0B3F5006F0FD066
:10280000B3F5E06F0CD0B3F5C06F09D0B3F5A06F8E
:1028100006D0B3F5806F03D0B3F5407F40F08D80D4
:10282000A369B3F5007F04D01BB1B3F5802F40F04E
:102830008A80636B082B02D0002B40F08A80E3690A
:102840006BB1082B0BD0102B09D0182B07D0202BE5
:1028500005D0282B03D0302B01D0382B7FD1236A11
:1028600013B1802B40F08180636A13B1102B40F0CC
:102870008280636A43B9236913B1022B40F08180DF
:102880006369012B00F283800023A36294F85D301A
:10289000002B00F08280022384F85D3022681368E8
:1028A00023F040031360E368B3F5E06F7BD90022A7
:1028B000B3F5706F04D0B3F5E06F01D00021A162D1
:1028C000216B21B9B3F5E06F70D9022323636368EC
:1028D000A1680B4321690B4361690B43A16901F4B2
:1028E00000710B43E1690B43216A0B43A06A216825
:1028F00003430B60638B03F00403616A0B43616B5A
:102900000B43E1680B43216813434B602268D36992
:1029100023F40063D36100202066012384F85D3036
:1029200010BD4FF48E71254801F052F946E740F290
:102930001D11224801F04CF949E74FF48F711F48EF
:1029400001F046F96CE740F21F111C4801F040F914
:102950006FE74FF49071194801F03AF96FE740F2D0
:102960002111164801F034F979E74FF491711348B9
:1029700001F02EF978E740F22311104801F028F910
:1029800077E74FF493710D4801F022F978E740F2B0
:1029900027110A4801F01CF976E784F85C302046DC
:1029A00001F06CF977E74FF4805281E7012323634C
:1029B0008DE70120704700BF0030014060880008AB
:1029C00020B310B504460368114A93420CD0A2F517
:1029D0007842934208D002F58062934204D04FF4CB
:1029E000CB710C4801F0F4F8022384F85D302268C2
:1029F000136823F040031360204601F087F900209C
:102A0000206684F85D0084F85C0010BD01207047EA
:102A100000300140608800082DE9F04182B0044692
:102A20000D4617461E46836813B1B3F5004F19D102
:102A300094F85C30012B00F0D880012384F85C30DE
:102A4000FEF768F9804694F85D30DBB2012B0FD0B9
:102A50000220012384F85D30002384F85C3002B04A
:102A6000BDE8F0814FF4FF71614801F0B1F8DFE794
:102A7000002D00F0B080002F00F0AF80032384F819
:102A80005D3000232366A563A787E7872364A4F846
:102A90004430A4F846302365E364A368B3F5004FDF
:102AA0001BD023681A6812F0400F03D11A6842F055
:102AB00040021A60E368B3F5E06F32D963681BB176
:102AC000E38F9BB2012B13D1236835F8022BDA6018
:102AD000E38F013B9BB2E3870AE02268136843F46B
:102AE00080431360DDE7002E79D0B6F1FF3F10D1AF
:102AF000E38F9BB2002B59D023689A6812F0020F23
:102B0000F1D035F8022BDA60E38F013B9BB2E3870B
:102B1000EEE7FEF7FFF8A0EB0800B042E8D3032091
:102B200097E763681BB1E38F9BB2012B22D1E38F40
:102B30009BB2012B08D9236835F8022BDA60E38FAA
:102B4000023B9BB2E38715E023682A781A73E38F70
:102B5000013B9BB2E38701350CE02A781A73E38FBF
:102B6000013B9BB2E387013504E0002E39D0B6F17A
:102B7000FF3F13D1E38F9BB2C3B123689A6812F071
:102B8000020FF2D0E28F92B2012AE6D935F8022B79
:102B9000DA60E38F023B9BB2E387EBE7FEF7BAF81C
:102BA000A0EB0800B042E5D3032052E7424631468D
:102BB0002046FFF7B4FD08B120232366A36833B98C
:102BC00001932368DA6801929B680193019B236E4D
:102BD0004BB900203DE701203BE7012039E7032006
:102BE00037E7032035E7012033E7022037E700BF4E
:102BF000608800082DE9F84304460F4616469846BB
:102C0000089D8368E3B994F85C30012B00F0528191
:102C1000012384F85C30FEF77DF8814694F85D303E
:102C2000DBB26268012B19D0B2F5827F0ED0022090
:102C3000012384F85D30002384F85C30BDE8F8831C
:102C400040F2A1319C4800F0C3FFDCE7A268002AF3
:102C500040F02681042B01D00220E9E7002F00F08C
:102C60002181002E00F02081B8F1000F00F01E81BC
:102C700094F85D30DBB2042B02D0052384F85D307C
:102C8000002323662664A4F84680A4F84480A76342
:102C9000A4F83E80A4F83C80E3642365E368B3F5C0
:102CA000E06F04D8B4F846309BB2012B22D92268D9
:102CB000536823F48053536023681A6812F0400F5E
:102CC00003D11A6842F040021A60E368B3F5E06F7E
:102CD00054D963681BB1E38F9BB2012B07D12368E2
:102CE00037F8022BDA60E38F013B9BB2E3874FF0AA
:102CF00001081CE02268536843F480535360DBE70B
:102D0000B4F846309BB27BB123689A6812F0010F89
:102D10000AD0DB6826F8023BB4F84630013B9BB290
:102D2000A4F846304FF00108B5F1FF3F1ED1E38F04
:102D30009BB22BB9B4F846309BB2002B00F0A480B4
:102D4000B8F1000FDCD0E38F9BB2002BD8D0236802
:102D50009A6812F0020FD3D037F8022BDA60E38FB3
:102D6000013B9BB2E3874FF00008C9E7FDF7D2FFB4
:102D7000A0EB0900A842DAD3032059E763681BB12E
:102D8000E38F9BB2012B0BD1E38F9BB2012B0AD9AE
:102D9000236837F8022BDA60E38F023B9BB2E387AC
:102DA0004FF0010832E023683A781A73E38F013B51
:102DB0009BB2E3870137F3E73A781A73E38F013B5D
:102DC0009BB2E38701374FF00008B4F846309BB25E
:102DD000CBB123689A6812F0010F14D0B4F84620E2
:102DE00092B2012A3CD9DB6826F8023BB4F846309F
:102DF000023B9BB2A4F84630B4F846309BB2012B9C
:102E000026D94FF00108B5F1FF3F35D1E38F9BB2D2
:102E100023B9B4F846309BB2002B35D0B8F1000F7F
:102E2000D3D0E38F9BB2002BCFD023689A6812F0E7
:102E3000020FCAD0E28F92B2012ABDD937F8022B15
:102E4000DA60E38F023B9BB2E3874FF00008BCE7F8
:102E50002268536843F4805353604FF00108D2E76F
:102E60001B7B3370B4F84630013B9BB2A4F846306C
:102E700001364FF00108C6E7FDF74CFFA0EB090053
:102E8000A842C3D30320D3E64A4629462046FFF78B
:102E900046FC08B120232366236E4BB90020C7E609
:102EA0000220C5E60120C3E60120C1E60120BFE6FD
:102EB0000120BDE60220C1E66088000890F85D00B0
:102EC00070470000F0B589B0294B5A6942F480225E
:102ED0005A615A6902F480220092009A5A6942F4B7
:102EE00000325A615A6902F400320192019A5A6919
:102EF00042F400225A615B6903F400230293029BAF
:102F00001C4F00224FF4A8413846FEF7D1F90022A9
:102F10004FF440414FF09040FEF7CAF9164E0022A0
:102F20004FF400613046FEF7C3F94FF4A843039312
:102F30000125049500240594069403A93846FDF75D
:102F4000B7FF4FF44043039304950594069403A9F7
:102F50004FF09040FDF7ACFF4FF4006303930495EE
:102F60000594069403A93046FDF7A2FF09B0F0BD11
:102F7000001002400004004800080048704730B5C7
:102F800083B0054600238DF8073000F0EBFF02AC5C
:102F900004F8015D01222021204601F021F82D0ACC
:102FA0008DF8075001222321204601F019F803B0C3
:102FB00030BD00B583B002AB03F8010D0122202122
:102FC000184601F00DF803B05DF804FB00B583B0BE
:102FD00000F0C8FF01220F210DF1070001F022F8D7
:102FE0009DF8070003B05DF804FB00B583B0012233
:102FF00024210DF1070001F015F89DF8073063F06A
:103000007F038DF80730012224210DF1070000F025
:10301000E7FF03B05DF804FB10B582B0044600235F
:103020008DF807308DF80630012230210DF10700B0
:1030300000F0F8FF012222210DF1060000F0F2FF5E
:103040009DF80730E4B203F080038DF807309DF857
:10305000063003F0DF031C438DF8064001223021C7
:103060000DF1070000F0BCFF012222210DF1060046
:1030700000F0B6FF02B010BD10B582B004460122C8
:1030800022210DF1070000F0CDFF54B1012C0ED12B
:103090009DF8073003F0F70343F008038DF807307D
:1030A00005E09DF8073063F07F038DF807300122BB
:1030B00022210DF1070000F093FF02B010BD10B502
:1030C00082B00446012222210DF1070000F0AAFF80
:1030D00044B1012C0CD19DF8073023F008038DF882
:1030E000073005E09DF8073003F07F038DF80730C7
:1030F000012222210DF1070000F072FF02B010BD85
:1031000010B582B00446012221210DF1070000F024
:1031100089FF9DF8070000F0C00020438DF80700EC
:10312000012221210DF1070000F05AFF02B010BD6D
:1031300010B582B00446012224210DF1070000F0F1
:1031400071FF9DF8070000F0EF0020438DF80700A5
:10315000012224210DF1070000F042FF02B010BD52
:1031600010B586B0044600230493ADF814300293E2
:10317000ADF80C3006A800F8113D0122232100F023
:1031800051FF0622282104A800F04CFF9DF80730CB
:1031900013F0400F1FD000222FE05300591C06A847
:1031A000014411F8080C06A90B4413F8081C01EBA4
:1031B000002123F8101C0132022AEEDD9DF80730B1
:1031C00003F03003102B1BD0202B1CD0F3B19FED4C
:1031D0001B7A00232DE00022EEE7530006A91944D4
:1031E00011F8080C01330DF1180C634413F8083C76
:1031F00003EB002321F8103C0132022AEDDDDDE76C
:103200009FED0F7AE5E79FED0F7AE2E79FED0E7AEB
:10321000DFE706AA02EB430232F9102C07EE902AF0
:1032200004EB8302F8EEE77A67EE877AC2ED007A64
:103230000133022BEDDD06B010BD00BF0000000021
:1032400000008C4100008C4200000C41F0B585B0BC
:103250000A9CB4F90A50002D0DDBB4F90860002E69
:1032600009DB0636B4F90470BE4204D80835B4F957
:103270000660B54201D905B0F0BDB4F90050B4F90B
:10328000026002EB420462000B9C0294B3FA83F3E7
:103290005B090193082300930623034C2244314425
:1032A000284400F0A4F8E6E750810008108151811D
:1032B000704708B543890933438102230381037BA7
:1032C00003B908BD084600F077F9FAE7F0B583B016
:1032D00005460F4614461E4614E0B4F90800B4F93A
:1032E0000A10019600943B46FFF7B0FF0EE02B78E2
:1032F0000A2B17D0B4F90A300833B4F906209342E8
:103300001ED801352A78DAB10A2AE6D12389063394
:103310001BB223810633B4F904209342E7D96B78BA
:103320000A2BE4D031462046FFF7C3FF01F062F9D3
:103330006B781844437813F0080FDBD00135D9E7D8
:1033400003B0F0BD0CB42DE9F0419AB004460F462D
:1033500020AD55F8048B00F01FF804F505762346E0
:10336000324602210846FFF7A1FF00952B46424650
:10337000642101A802F0A6FE0546234632463946DE
:1033800001A8FFF7A3FF204600F016F928461AB05F
:10339000BDE8F04102B07047002303E0C2180021ED
:1033A00011770133B3F5FC7FF8DB704700281DDB94
:1033B00000291BDB532819DC2F2917DC30B4CC1073
:1033C000542505FB040001F00701012404FA01F172
:1033D000C9B22AB103441A7F1143197730BC704730
:1033E00003441A7F22EA01011977F7E770472DE9B4
:1033F000F84F83468A4691461E460A9FDDF82C8088
:10340000002525E0E31D08E00C9BFFF7CFFF01340A
:10341000BC421CDA2346002CF4DBDB1006FB035312
:1034200019F80300614204F0070301F0070158BFD7
:103430004B4201229A40024005EB0B0004EB0A01CB
:10344000B8F1000FE0D0B2FA82F25209DCE70135A0
:10345000B54201DA0024DBE7BDE8F88F20F0200355
:10346000072B01DD0120704710B582B00C4640F0FB
:10347000200002A901F8010D4FF47A73012220689F
:10348000FFF7CAFA002002B010BD30B583B030F0AB
:103490000D050CD10C4602A901F8010D4FF47A7309
:1034A00001222068FFF7B8FA284603B030BD022594
:1034B000FAE7032810D810B582B00C4640F004009B
:1034C00002A901F8010D4FF47A7301222068FFF779
:1034D000A3FA002002B010BD04207047072810D8BE
:1034E00010B582B00C4640F0100002A901F8010DA1
:1034F0004FF47A7301222068FFF78EFA002002B0A1
:1035000010BD0520704710F0800F10D110B582B0AB
:103510000C4640F0800002A901F8010D4FF47A73C7
:1035200001222068FFF778FA002002B010BD0320C6
:103530007047F0B583B004460D4617461E46036833
:103540001A68136843F04003136000228188806882
:10355000FDF7AEFE0022A1892069FDF7A9FE6423D4
:103560000193019B013B0193002BFAD10122A18918
:103570002069FDF79DFE0022A18AA069FDF798FE53
:1035800021460120FFF76AFF21463846FFF7BBFFBF
:1035900021463046FFF78DFF21469DF82000FFF7BA
:1035A0009DFF21460020FFF759FF21462846FFF7DF
:1035B0006CFF002003B0F0BD10B582B004460022BD
:1035C00081888068FDF774FE0022A18AA069FDF75A
:1035D0006FFE02A9802301F8013D4FF47A730122A6
:1035E0002068FFF719FA02A9402301F8023D4FF4C1
:1035F0007A7301222068FFF70FFA0122A18AA069DD
:10360000FDF756FE4FF47A734FF4FC7204F11C017F
:103610002068FFF701FA02B010BD704710B50446EC
:1036200000F024FDE2B22021322000F081FD0022D2
:103630002321322000F07CFD10BD08B500F016FDFE
:103640000F21322000F078FD08BD08B5242132207A
:1036500000F072FD60F07F02D2B22421322000F02F
:1036600067FD08BD10B504462121322000F064FD3D
:1036700000F00C0222432121322000F059FD10BD40
:1036800010B504462121322000F056FD00F0F7026B
:1036900022432121322000F04BFD10BD30B587B010
:1036A00004462321322000F047FD05468DF80C002A
:1036B0002421322000F040FD2821322000F03CFD82
:1036C0008DF804002921322000F036FD8DF8050028
:1036D0002A21322000F030FD8DF806002B21322007
:1036E00000F02AFD8DF807002C21322000F024FD87
:1036F0008DF808002D21322000F01EFD8DF8090004
:1037000015F0400F22D0002135E051004B1C06A8D7
:10371000034413F9143C9BB21B029BB2014411F900
:10372000140C13FA80F321F8083C0132D2B2022AB9
:10373000EBD99DF80C3003F03003202B1ED0302B3A
:103740001ED0102B1ED00121002328E00022EEE71E
:103750004A0006AB981810F9143C9BB21B029BB2AE
:10376000013206AD2A4412F9142C13FA82F320F820
:10377000083C0131C9B20229EAD9DAE70421E3E7BA
:103780000C21E1E70221DFE706AA02EB430232F94E
:10379000082C12FB01F224F813200133DBB2022BB8
:1037A000F2D907B030BD10B504462121322000F017
:1037B000C3FC00F0FB0222432121322000F0B8FCC0
:1037C00010BD10B504462221322000F0B5FC40EABD
:1037D0000402D2B22221322000F0AAFC10BD10B5A2
:1037E00004463821322000F0A7FC40EA0402D2B29D
:1037F0003821322000F09CFC0A223A21322000F0CD
:1038000097FC05223B21322000F092FC05223C214E
:10381000322000F08DFC32223D21104600F088FC61
:1038200010BD08B500F05CFC8020FFF7CAFF042043
:10383000FFF7B9FF1020FFF7D2FF08BD70B50446AF
:103840000E46FFF7A9FD04F5057523462A46022119
:103850000846FFF72BFD23462A4601213046FFF795
:1038600035FD2046FFF7A8FE70BD2DE9F84F044650
:10387000D0E902ABD0E90467D0E90023104619462D
:10388000FCF762FE8046894652465B4650465946E2
:10389000FCF75AFE02460B4640464946FCF79EFCA2
:1038A0008046894632463B4630463946FCF74CFE58
:1038B00002460B4640464946FCF790FC41EC100B93
:1038C00000F042FD59EC108B10EE102A4B46D4E963
:1038D0000801FDF7ABF850B1C4E9088904F12805E7
:1038E00026460FCE0FC596E8030085E80300C4E91D
:1038F0000689BDE8F88F000038B504460D46B1F9D9
:1039000000000011FCF7B6FD00220E4BFCF746FF4D
:10391000C4E90001B5F902000011FCF7ABFD00227B
:10392000084BFCF73BFFC4E90201B5F904000011A4
:10393000FCF7A0FD0022034BFCF730FFC4E90401B3
:1039400038BD00BF00408F4038B504460D460868BA
:10395000FCF7A2FD00220C4BFCF720FFC4E900019C
:103960006868FCF799FD0022074BFCF717FFC4E9D4
:103970000201A868FCF790FD0022034BFCF70EFF44
:10398000C4E9040138BD00BF00408F40FEE70000DD
:1039900000B591B00223069301230A9310230B93E1
:1039A00000230D9306A8FEF717F9F0B90F23019332
:1039B0000021029103910491059101A8FEF7E2FC18
:1039C000C0B9FEF70BFE0E4BA3FB00308009FDF7DC
:1039D00035FA0420FDF748FA002211464FF0FF3077
:1039E000FDF7D0F911B05DF804FB4FF4877105487D
:1039F000FFF7CCFF4FF48E710248FFF7C7FF00BFFF
:103A0000D34D62109888000880B594B0FDF764F932
:103A1000FFF7BEFFFFF756FA00F0DCF800F004F9FC
:103A20005F4C604B23604FF48048A4F804805E4BE9
:103A3000A3604FF48062A28123614FF48052A2827E
:103A4000A3615A4D04F5057328686968AA6807C31D
:103A5000AF891F8003260096022340220D212046B5
:103A6000FFF767FD524C534B23604FF40063A38074
:103A700003F19043A360A4F80C804FF090432361BE
:103A80004FF40042A282A36104F5057328686968B7
:103A9000AA6807C31F800096022340220D212046FA
:103AA000FFF747FD0022444B4449C1E9082344493C
:103AB000C1E9082300F044FB20B142493848FFF730
:103AC000BDFEFEE700F060FB002863D100231293E7
:103AD000ADF84C300F931093119312A800F04AFBED
:103AE000364C12A92046FFF707FF2046FFF7BDFE20
:103AF000D4E90623CDE90C23D4E90E23CDE90A232A
:103B0000D4E90423CDE90823D4E90C23CDE9062325
:103B1000D4E90223CDE90423D4E90A23CDE9022321
:103B2000D4E90023CDE90023274A01211C48FFF7EF
:103B300009FC0FA800F04AFB214C0FA92046FFF713
:103B400003FF2046FFF791FED4E90623CDE90C23BD
:103B5000D4E90E23CDE90A23D4E90423CDE90823CF
:103B6000D4E90C23CDE90623D4E90223CDE90423CB
:103B7000D4E90A23CDE90223D4E90023CDE90023C7
:103B8000124A01210A48FFF7DDFB4FF47A70FDF776
:103B9000C7F8A2E70B490648FFF750FEFEE700BF53
:103BA000600300202C080020000400485087000813
:103BB00008060020900800200000F0FF8805002083
:103BC000C8050020A8880008C0880008FC880008F4
:103BD0007047000008B51148114B03604FF4827321
:103BE0004360002383604FF4E062C260036143617D
:103BF0004FF4007282611022C261036243628362E9
:103C00000722C262036308234363FEF7BBFD00B9CA
:103C100008BD48210348FFF7B9FEF9E72C0800204A
:103C2000003800403889000808B51148114B03607E
:103C30004FF482734360002383604FF4E062C260FC
:103C4000036143614FF4007282611022C26103621A
:103C5000436283620722C262036308234363FEF761
:103C600091FD00B908BD60210348FFF78FFEF9E719
:103C700090080020003C00403889000800B589B059
:103C800003681E4A934205D01D4A93421CD009B0D6
:103C90005DF804FB1B4BDA6942F48042DA61DB69B0
:103CA00003F480430193019B4FF4204303930223C9
:103CB000049300230593032306930523079303A985
:103CC0001148FDF7F5F8E2E70E4BDA6942F40042DD
:103CD000DA61DB6903F400430293029B2823039318
:103CE00002230493002305930323069306230793DB
:103CF00003A90548FDF7DCF8C9E700BF003800401C
:103D0000003C0040001002400004004808B5036871
:103D10000E4A934203D00E4A93420CD008BD02F5DE
:103D2000EC32D36923F48043D3614FF42041094836
:103D3000FDF71CFAF2E702F5EA32D36923F40043F7
:103D4000D36128210348FDF711FAE7E70038004066
:103D5000003C00400004004800B589B0124B9A694D
:103D600042F480529A619A6902F480520192019A57
:103D70005A6942F400325A615B6903F400330293DA
:103D8000029BE02303930223049300230593032360
:103D900006930523079303A94FF09040FDF788F899
:103DA00009B05DF804FB00BF0010024010B588B0F8
:103DB000104C636943F480236361636903F48023D7
:103DC0000193019BC02303930223049305930323D0
:103DD00006930423079303A90748FDF769F8E369ED
:103DE00043F40013E361E36903F400130293029BBD
:103DF00008B010BD001002400004004810B5114882
:103E0000FFF75CF800B110BD0E4C0F4B2360182378
:103E1000E3610023A36063612361A3620722E2627E
:103E20004FF4E062E26023624FF40072A2616362C9
:103E30004FF4827363602046FFF78EFF2046FEF743
:103E4000A1FCE0E7940200200030014008B50348DF
:103E5000FEF7B6FDFFF7D2FF08BD00BF94020020B9
:103E600000B587B08DF80F0006AA002302F8013DC7
:103E7000084B1B68009301230DF10F010648FEF764
:103E8000B9FE20B99DF8170007B05DF804FBFFF7F5
:103E9000DDFFF7E7700000209402002010B50D4808
:103EA000FDF796FE00B110BD0B4C0C4B6366322340
:103EB000E3660123236700236367A367C4F88030A8
:103EC000C4F8843064342046FFF770FF2046FDF7C5
:103ED000ADFBE8E7F8020020940200200054004007
:103EE00008B50348FDF75CFCFFF7D8FF08BD00BF2D
:103EF000F802002010B586B006AC04F8012D084B7E
:103F00005B6802930123019300940A460146054829
:103F1000FDF772FC08B906B010BDFFF7E1FFFAE744
:103F200070000020F802002000B587B006AA002328
:103F300002F8013D094B5B68029301230193009253
:103F40000A4601460648FDF74FFD20B99DF81700C7
:103F500007B05DF804FBFFF7C3FFF7E77000002030
:103F6000F80200202DE9F04389B01B4C636943F44B
:103F700000136361636903F400130193019B4FF025
:103F80000808CDF80C804FF00109CDF810900026FC
:103F9000059603270697114D03A92846FCF788FFCD
:103FA0004A4641462846FDF783F9636943F4001306
:103FB0006361636903F400130293029B0397049601
:103FC0000697059603A92846FCF772FFFFF716FF30
:103FD00009B0BDE8F08300BF0010024000100048A7
:103FE00070B505460E461446012A01D941F0400637
:103FF000002208210A48FDF75BF93046FFF730FF41
:1040000005E015F8010BFFF72BFF013CA4B2002CD3
:10401000F7D1012208210248FDF74AF970BD00BF1F
:104020000010004870B505461446012A0AD941F02F
:10403000C006002208210C48FDF73AF93046FFF788
:104040000FFF09E041F08006F3E70020FFF708FFCB
:1040500005F8010B013CA4B2002CF6D10122082185
:104060000148FDF725F970BD0010004870B588B013
:10407000194B5A6942F400125A615A6902F400124B
:104080000192019A5A6942F400125A615B6903F481
:1040900000130293029B04230393002404940594C9
:1040A000032606960D4D03A92846FCF701FF22467C
:1040B0000F210820FCF766FE0820FCF7A9FE30233C
:1040C000039304940696059403A92846FCF7F0FE92
:1040D000FFF7E4FE08B070BD001002400010004879
:1040E00010B586B00F4B5A6942F400125A615B69F1
:1040F00003F400130093009B302301930A4B0293B7
:10410000032304930024039401A90848FCF7D0FE7C
:1041100022460F210A20FCF735FE0A20FCF778FE24
:1041200006B010BD00100240000011100010004841
:1041300008B5FFF7DFFE08BD08B5FFF7F5FE08BDBF
:1041400010B50A4B9B68984733280CD1084C074B95
:1041500023601B6840F64700984723689B6A9020BD
:104160009847002010BD0120FCE700BF3C00002064
:104170004403002008B5034B1B681B6B03B1984731
:1041800008BD00BF4403002010B50E4B9B68984744
:10419000D42806D00B4B9B689847D52801D0012026
:1041A0000FE0094C074B23601B6841F23F00984722
:1041B00023689B6A002098472368DB6A1020984791
:1041C000002010BD080000204803002008B5034B64
:1041D0001B681B6B03B1984708BD00BF4803002054
:1041E00000B583B0214B9A6942F001029A619A6945
:1041F00002F001020092009ADA6942F08052DA611C
:10420000DB6903F080530193019B0320FCF79CFDC5
:10421000002211466FF00B00FCF7B4FD002211469E
:104220006FF00A00FCF7AEFD002211466FF00900A6
:10423000FCF7A8FD002211466FF00400FCF7A2FD78
:10424000002211466FF00300FCF79CFD002211468E
:104250006FF00100FCF796FD002211464FF0FF3091
:10426000FCF790FD03B05DF804FB00BF00100240B6
:104270007047FEE7FEE7FEE7FEE7704770477047CE
:1042800008B5FCF73BFDFCF70EFE08BD1549D1F85B
:10429000883043F47003C1F88830134B1A6842F039
:1042A00001021A605868114A02405A601A6822F0E6
:1042B000847222F480321A601A6822F480221A6012
:1042C0005A6822F4FE025A60DA6A22F00F02DA62B9
:1042D000186B074A02401A6300229A604FF000638D
:1042E0008B60704700ED00E0001002400CC07FF8CA
:1042F000CCFC00FFDFF834D0002103E00C4B5B580E
:10430000435004310B480C4B42189A42F6D30B4AE7
:1043100002E0002342F8043B094B9A42F9D3FFF72D
:10432000B5FF00F03FF9FFF76FFBFEE700A00020AC
:10433000108C000800000020740200207802002089
:10434000F8080020FEE700002DE9F0432DED028B78
:104350008BB055EC104B00F053F8274BB0EE408A71
:10436000F0EE608A93F90060731C12D022462B464F
:1043700020462946FCF782FB074650B94FF000085B
:104380004FF000092046294642464B46FCF74EFBBB
:1043900040B9B0EE480AF0EE680A0BB0BDEC028BF3
:1043A000BDE8F0830122154B08970092CDE9044542
:1043B000CDE90245019396B142464B4640464946F7
:1043C000FCF7ECF9022ECDE906010AD100F0E4F881
:1043D00021230360089B53B99DED068BD9E7CDE9F6
:1043E0000689684600F0D6F80028F3D1EEE700F021
:1043F000D3F8089B0360EFE7A0000020488900087D
:104400002DE9F041624A57EC106BBA4300F09580F9
:10441000002F3B4610EE101A344654DD3F1500F0D5
:10442000AF80C3F31303A7F2FF3743F48013E20F07
:10443000F90702EB43034FEA440503D5ED0F05EB03
:104440004303A50000267F10B44616224FF4001146
:104450000CEB010098424FEAD5744FEA450503DCA6
:104460001B1A00EB010C0E44013A04EB43034FEA24
:104470005101EDD11046964620244FF0004209E04C
:1044800052D05B00013C03EBD5734FEA52024FEA76
:10449000450536D0634502EB0E01F1DD002901EB45
:1044A000020E0ADBE046A3EB0C03A94288BF03F12E
:1044B000FF336D1A1044C446E3E7BEF1000FF1DB91
:1044C0000CF10108EFE727F0004232432AD0002F19
:1044D00049D1CA0A153B4905002AFAD012F48010C6
:1044E00001D050E020465200D50200F10104F9D578
:1044F000C4F1200501FA04F4E9401F1A41EA02035D
:104500008FE72B4329D144087110F30701F17F5144
:1045100001F5001148BF44F0004401EB0753224667
:1045200043EC102BBDE8F081A942AAD8002901EB89
:10453000020EC2DB98460023BBE710EE102A3B4672
:1045400010EE100A3946FBF7FFFF32463B46FBF7F9
:1045500045FE41EC100BBDE8F081421C16BF421C29
:1045600001365408D0E710EE102A30463946FBF7E2
:1045700033FE02460B46FCF711F941EC100BD1E774
:104580001A463B46AAE70C4620254FF0FF30B3E71A
:104590000000F07F00207047014B1868704700BF93
:1045A000A400002070B50D4E0D4CA41BA4100025D6
:1045B000A54209D10B4E0C4C03F0AEFDA41BA41078
:1045C0000025A54205D170BD56F825309847013524
:1045D000EEE756F8253098470135F2E7088C0008D9
:1045E000088C0008088C00080C8C0008D0F8EC003F
:1045F00070470000044B054A1B681B6A002B08BF6C
:104600001346D3F8EC007047A400002008010020F6
:1046100082B001B901A942B14BB113780B60127895
:10462000101C18BF012002B070471046FBE76FF066
:104630000100F8E702440346934200D1704703F8B3
:10464000011BF9E72DE9FF4755EC104B0D9FDDF8F5
:1046500030A0002D0E4691461946B8BF22462B4683
:1046600027F02007BBBF05F100431D4600232D2383
:10467000B8BF1446462F0B7004D0452F00D1013629
:10468000022100E0032103AB019302AB0093324609
:10469000534645EC104B01F0BFFD472F804602D139
:1046A00019F0010F26D0462F08EB060911D198F812
:1046B0000030302B0AD10022002320462946FCF787
:1046C000ABF918B9C6F10106CAF80060DAF8003093
:1046D00099440022002320462946FCF79DF938B969
:1046E0003022039B4B4505D2591C03911A70F8E701
:1046F000CDF80C90039B0E9AA3EB08034046136081
:1047000004B0BDE8F087F7B500290446BABF4942B6
:104710002D232B23092904F8022B437020DD0DF1F2
:1047200007031F460A2691FBF6F506FB15113031EB
:10473000092D03F8011C03F1FF32294609DC303151
:10474000023B02F8011CBB42224604D3101A03B0FC
:10475000F0BD1346E7E713F8012B04F8012BF2E74D
:10476000302319448370021DC170EFE72DE9F04F2B
:104770008DB00C46DDF8588016461F46054602F0FF
:104780002BFE036804931846FCF78EF900230A9366
:10479000D8F800300590073323F0070303F108022F
:1047A00094F818A0D4F800B0C8F80020D3E900238A
:1047B000C4E91223D4E9128929F000430793CDF804
:1047C00018804FF0FF32A74BDDE90601FCF756F9E0
:1047D00070BB4FF0FF32A34BDDE90601FCF730F967
:1047E00030BB0022002340464946FCF71FF910B1B8
:1047F0002D2384F843309C4A9C4BBAF1470F8CBF61
:104800009046984603232BF00402236122604FF068
:104810000009009733460BAA2146284600F0E6F926
:10482000013040F08D804FF0FF300DB0BDE8F08FCB
:1048300042464B4640464946FCF720F910B18C4AA7
:104840008C4BDAE761684B1C4BF480620AA83ED1BE
:10485000062363600023CDE9020309AB009349EC12
:10486000108B0DF123032260CDF804A06168284667
:10487000FFF7E8FE0AF0DF03472B804609D1099BCA
:10488000D81C02DB6268934247DDAAF1020A5FFA94
:104890008AFABAF1650F099924D80139524604F110
:1048A00050000991FFF72FFF0A9A1318012A814639
:1048B000236102DC2268D10701D5013323619DF811
:1048C0002330002BA5D02D2384F84330A1E7BAF183
:1048D000670F00F07781BAF1470FBBD10029B9D13A
:1048E0000123B6E7BAF1660F19D1002963680CDD20
:1048F000216113B92268D20702D501330B44236129
:10490000099BA3654FF00009D9E713B92268D007C6
:1049100001D50233F3E70123F1E74FF0670ADDE940
:104920000932934205DB22682361D107E8D50133C0
:10493000E5E7002BD4BFC3F1020301231344DEE7F4
:1049400023685A0507D42369424631462846B847AA
:1049500001302BD167E7BAF1650F40F2DC8000220D
:104960000023D4E91201FCF757F8002833D00123C3
:10497000414A31462846B84701303FF454AFDDE99B
:1049800009239A4202DB2368D8070FD5DDE9042307
:1049900031462846B84701303FF445AF4FF0000894
:1049A00004F11A090A9B013B434509DC23689B0774
:1049B00000F10381E0680B9B9842B8BF184634E7CA
:1049C00001234A4631462846B84701303FF42BAF11
:1049D00008F10108E6E7099B002B2BDC0123264A9E
:1049E00031462846B84701303FF41DAF099B23B933
:1049F0000A9B13B92368D907D8D5DDE904233146CA
:104A00002846B84701303FF40EAF4FF0000904F1DB
:104A10001A0A099B5B424B4501DC0A9B94E7012380
:104A2000524631462846B84701303FF4FCAE09F102
:104A30000109EEE70A9AA36D9A42A8BF1A46002A16
:104A4000914607DD1346314642462846B8470130B5
:104A50003FF4E9AE04F11A034FF0000B29EAE979BB
:104A6000069315E0FFFFEF7F5E8900085A89000872
:104A700066890008628900086A8900080123069A8D
:104A800031462846B84701303FF4CDAE0BF1010B5B
:104A9000D4F858A0AAEB09035B45EFDCDDE9092354
:104AA0009A42D04415DB2368DA0712D40A9B09998D
:104AB000A3EB0A02A3EB010A9245A8BF9246BAF102
:104AC000000F0EDC4FF000082AEAEA7A04F11A0916
:104AD00019E0DDE9042331462846B8470130E5D125
:104AE000A1E65346424631462846B8470130E9D14F
:104AF00099E601234A4631462846B84701303FF43B
:104B000092AE08F10108DDE909239B1AA3EB0A0321
:104B10004345EEDC4AE70A9A012A01DCDB073AD575
:104B20000123424631462846B84701303FF47BAE68
:104B3000DDE9042331462846B847013008F1010871
:104B40003FF471AE0A9B002203F1FF3AD4E912014F
:104B50000023FBF761FFC8B9534642463146284659
:104B6000B84701300ED15EE6012352463146284651
:104B7000B84701303FF457AE08F101080A9B013BEA
:104B80004345F1DC4B4604F15002DEE64FF00008ED
:104B900004F11A0AF2E70123DFE701234A4631460E
:104BA0002846B84701303FF43EAE08F10108E368FB
:104BB0000B9A9B1A4345F0DCFCE64FF0000804F129
:104BC0001909F4E700293FF48BAE0023CDE9020375
:104BD00009AB009349EC108B2260CDF804A00DF1D5
:104BE00023032846FFF72EFD804648E62DE9F047CF
:104BF00091461F468A680B69DDF820809342B8BF52
:104C00001346C9F8003091F8432006460C4612B10D
:104C10000133C9F800302368990642BFD9F8003043
:104C20000233C9F80030256815F0060507D104F1F4
:104C3000190AE368D9F800209B1AAB4228DC94F8E3
:104C400043302268003318BF012392062DD404F1AB
:104C5000430239463046C047013020D02368E5681A
:104C6000D9F8002003F00603042B08BFAD1AA3688F
:104C700022690CBF25EAE57500259342C4BF9B1A43
:104C8000ED184FF000091A344D451AD1002008E004
:104C90000123524639463046C047013003D14FF018
:104CA000FF30BDE8F0870135C3E7E1185A1C30201A
:104CB00081F84300224494F8451082F843100233EF
:104CC000C5E70123224639463046C0470130E6D0C9
:104CD00009F10109D8E700002DE9F04301F1430C87
:104CE0000C46097E85B06E291746064698460C9AF2
:104CF00000F0B38022D8632936D00AD8002900F00A
:104D0000B980582900F0838004F1420584F84210EC
:104D100032E0642901D06929F6D1206813680506BC
:104D200003F104012AD51B681160002B03DA2D2240
:104D30005B4284F843206F480A2239E0732900F06F
:104D40009D8008D86F2920D07029DDD1236843F0D9
:104D50002003236003E0752917D07829D4D1782364
:104D600084F84530644855E01368191D1B681160CC
:104D700004F1420584F8423001238CE01B68116085
:104D800010F0400F18BF1BB2CFE713682568181D3D
:104D90001060280601D51B6802E06806FBD51B8859
:104DA00054486F2914BF0A220822002184F84310B6
:104DB0006568A560002DC0F29580216821F004018E
:104DC0002160002B3DD1002D40F08E806546082AE1
:104DD0000BD12368DB0708D5236962689A42DEBFDE
:104DE000302305F8013C05F1FF35ACEB05032361E9
:104DF000CDF800803B4603AA21463046FFF7F6FE79
:104E000001304DD14FF0FF3005B0BDE8F083394897
:104E100084F84510136821681D1D1B6815600A067B
:104E20000BD5CA0744BF41F0200121601BB922689D
:104E300022F0200222601022B7E74D0648BF9BB245
:104E4000EFE76546B3FBF2F102FB1133C35C05F8F3
:104E5000013D0B460029F5D1B9E713682568616962
:104E6000181D106028061B6801D5196002E06A064B
:104E7000FBD51980002323616546B9E71368191D26
:104E800011601D68626800212846FBF719FE08B111
:104E9000401B606063682361002384F84330A7E708
:104EA00023692A4639463046C0470130AAD02368D4
:104EB0009B0713D4E068039B9842B8BF1846A3E74A
:104EC00001234A4639463046C04701309AD0013561
:104ED000E368039A9B1AAB42F2DCEBE7002504F18E
:104EE0001909F5E7002BACD1037884F8423004F1BE
:104EF00042056CE76C8900087D8900082DE9F04FB8
:104F00009A468B6816465A1EB2F5AE7F87B083BFAD
:104F10006FF4AE729B180193002386BF40F25D13BD
:104F20008B6001930B6888464FF0000B43F4F063ED
:104F300048F81C3BCDE903BB07460C4645465A469C
:104F4000D946CDF808B0A16881B133681B78492BE8
:104F500071D04DD8392B40D8312B80F088802D2B43
:104F600000F0908015D82B2B00F08C80B9F1000F49
:104F700003D0236823F480732360013A012A00F2EE
:104F8000EA80454500F2DC800126304607B0BDE8E6
:104F9000F08F2E2B00F09F80302BE7D1206810F48B
:104FA000807F64D0019B20F08000206009F101091E
:104FB0001BB1013B01310193A160A368013BA360D8
:104FC0002369013323617368013B002B736040F355
:104FD000AC80336801333360B5E7452B00F0858042
:104FE000462B6AD0412BC1D1012ABFD1022246E013
:104FF000652B7AD018D8542B66D011D84E2BB5D14A
:10500000002A46D1B9F1000F45D1216801F4E060D2
:10501000B0F5E06F3FD121F4F061216001222EE074
:10502000592B1ED0612BDEE76E2BE9D015D8662BED
:1050300043D0692B9AD1BBF1000F38D1B9F1000FE1
:1050400097D1216801F4E060B0F5E06F95D121F4CB
:10505000F06121604FF0010B11E0742B34D0792BFB
:1050600084D1BBF1070F81D14FF0080B07E012EBA1
:105070000B0F7FF47BAF216821F4C07121602B708E
:1050800001359AE7216808067FF570AF21F08001AD
:10509000F4E7022A47D0BBF1010F03D0BBF1040FA4
:1050A0007FF464AF0BF1010B5FFA8BFBE7E7BBF119
:1050B000030FF7D0BBF1050FF2E7BBF1020F7FF44E
:1050C00055AF4FF0030BDAE7BBF1060F7FF44EAF9D
:1050D0004FF0070BD3E7216888057FF547AF21F430
:1050E00020712160CDF80890C9E7216801F4A06023
:1050F000B0F5806F06D048057FF538AFB9F1000FE5
:105100003FF43BAF880558BF029821F4F06158BFC7
:10511000A9EB000041F4C07158BFCDE9030521603F
:105120004FF00009ABE70322A9E7D4F880310592DC
:10513000314638469847059A00283FF404AF15E7F2
:10514000D4F87C3115F8011D32463846984723695A
:10515000013B236115E70BF1FF33062B0AD8BBF1A6
:10516000020F68D9ABF1030B5FFA8BFBA5EB0B0BBE
:105170005D454BD12368DA051FD55B0568D415F86A
:10518000011C2369652903F1FF3305F1FF3B23610E
:105190000DD045290BD0D4F87C313246384698479B
:1051A000236915F8021C013BA5F1020B2361D4F819
:1051B0007C313246384698475D46266816F0100620
:1051C0007AD12E70236803F4C063B3F5806F42D1A7
:1051D000029BA9EB03035A42002B49D1002241460E
:1051E000384600F0A5FE2568DAF8003015F0020F09
:1051F00003F1040259EC108BCAF8002043D01B685D
:10520000C3E90089E3680133E360BEE6D4F87C318A
:1052100015F8011D3246384698472369013B236142
:10522000A6E7D4F87C3115F8011D32463846984778
:105230002369013B23614545F3D8A5E6D4F87C31C9
:1052400015F8011D3246384698472369013B236112
:105250004545F3D898E6039B002BBFD004990A2359
:1052600032460131384600F0EFFE039B049DC21A1E
:1052700004F26F139D4228BF04F5B7750F49284605
:1052800000F024F8AAE715F00405B8D11F6810EE65
:10529000102A4B4610EE100A4946FBF7EFFB28B1E7
:1052A000284600F00DF887ED000AABE74046494676
:1052B000FBF79EFC3860A5E7002666E68E890008AD
:1052C0009FED010A704700BF0000C07F0EB400B51B
:1052D0009CB01DAB029006906FF000410948079109
:1052E0000491094953F8042B05910068019302A920
:1052F00002F0A2FD029B00221A701CB05DF804EBC4
:1053000003B07047A40000200802FFFF70B50446F8
:105310000D4645EC104B164602F04AFB51EC100BC3
:105320007EB1C5F30A53C3F16B03002B09DD1B05E6
:1053300003F17F55002405F5401522462B46FBF767
:1053400003F970BD000000002DE9F04F1F46A1B029
:105350000023814638460E4617921C9302F03AF815
:1053600080460068FBF7A0FB4FF0000A04464FF0B0
:10537000000B1B961B9B1A780D2A32D8092A36D2AD
:10538000002A3ED000230D931B9D2B78302B40F03C
:10539000AC806B78582B01D0782B67D10D9B019393
:1053A0001CAB009302971DAB884A1BA9484601F02D
:1053B0003AFD10F00704064605D0062C2BD1013526
:1053C00000231B950D93179B002B40F09A850D9B96
:1053D000E3B152460BF1004343EC102B21B0BDE882
:1053E000F08F2B2A15D02D2A04D0202ACAD10133C0
:1053F0001B93BFE701220D925A1C1B925B78002B76
:10540000C2D1179B1B96002B40F0798552465B4614
:10541000E2E70022EFE71C9A3AB135211EA802F01C
:10542000BFFB1C99484602F02CF8013C042C06D81E
:10543000DFE804F00A0314170A00DDE91EAB3007A9
:10544000C1D54BF0004BBEE7DDE91EA31D9A23F446
:10545000801302F2334243EA025BF0E7DFF870B1F7
:10546000EDE76FF0004B4FF0FF3AE8E71B9B5A1C4B
:105470001B925B78302BF9D0002BA4D001230025A0
:1054800006931B9B0893079505950A221B9807789E
:10549000A7F13003D9B2092929D92246D8F800103A
:1054A00002F0D0FD002831D00020059C04903B463E
:1054B0000246652B01D0452B14D124B910B9069BA7
:1054C000002B9ED000241B9E731C1B9373782B2BE8
:1054D00078D02D2B70D04FF0000CA3F13007092F9E
:1054E0007CD91B964FF0000E9AE00023C7E7059980
:1054F0000829DDBF079902FB0133079302FB05353D
:10550000059B0130013305931B90BFE71B9B1A19C4
:105510001B92059A1B5D002A37D0059C0246A3F119
:105520003001092913D901210491C2E71B9B5A1CA0
:105530001B925B780130302BF8D0A3F13102082A9E
:1055400000F2E4841B9A0892024600200446B3F15C
:10555000300E00F1010112D00A4400EB040C214688
:105560000A278C4513D12118082904F101040444A9
:1055700019DC079B0A2101FB03E3079300211B9B16
:10558000581C1B905B780846C9E70598D3E70829A3
:1055900001F1010103DC079B7B430793E1E710293D
:1055A000D8BF7D43DDE7102CDCBF0A2101FB05E5F8
:1055B000E4E70123049381E74FF0010CB31C1B9334
:1055C000B3788AE74FF0000CF8E700BF9489000831
:1055D0000000F07F1B9B5F1C1B975B78302BF9D082
:1055E000A3F13107082F3FF67DAFA3F1300E1B9BCF
:1055F0000A931B9B5F1C1B975B78A3F13008B8F1E3
:10560000090F37D90A997F1A082F44F61F6737DC2C
:10561000BE45A8BFBE46BCF1000F01D0CEF1000EC2
:10562000002C51D100287FF4CEAE069A002A7FF4D8
:10563000CAAE049A002A7FF4E4AE4E2B27D021DCB8
:10564000492B7FF4DEAEA0491BA801F01FFE002805
:105650003FF4D7AE1B9B9D49013B1BA81B9301F058
:1056600015FE10B91B9B01331B93DFF874B24FF08A
:10567000000AA8E60A2101FB0E3EAEF1300EB8E7A3
:10568000BE46C8E7692BDED06E2B7FF4BAAE9049D8
:105690001BA801F0FBFD00283FF4B3AE1B9B1B7859
:1056A000282B0ED11EAA8B491BA801F003FE05284A
:1056B00007D11F9BDDF878A043F0FF4B4BF4E00BC4
:1056C00081E6DFF824B2D2E7AEEB02030693059B36
:1056D0000798002B08BF2346102C0593A046A8BFAF
:1056E0004FF01008FAF7B6FE092C82468B4613DC01
:1056F000069B002B3FF467AE069B7ADD162B61DC20
:10570000754A02EBC30EDEE9000152465B46FAF72A
:105710001BFF82468B4656E66F4B03EBC80353E9EB
:105720001223FAF711FF064628460F46FAF792FEB3
:1057300002460B4630463946FAF750FD0F2C82469A
:105740008B46D5DD069BA4EB08089844B8F1000F02
:1057500040F3968018F00F030AD05F4901EBC301B4
:1057600052465B46D1E90001FAF7EEFE82468B46CF
:1057700038F00F0873D0B8F59A7F47DD0024A046B3
:10578000079405942223DFF858B1C9F800304FF090
:10579000000A079B002B3FF416AE1C99484601F007
:1057A00070FE0599484601F06CFE4146484601F0FE
:1057B00068FE0799484601F064FE2146484601F01C
:1057C00060FE00E6069AC4F125039342BADB424D1F
:1057D000C4F10F0405EBC40152465B46D1E9000158
:1057E000FAF7B2FE069B1C1B05EBC405D5E90023A6
:1057F0008DE713F1160FA5DB374AA2EBC302D2E9FE
:10580000002350465946FAF7C9FF82E70023334E7A
:105810004FEA2818504659461D46B8F1010F21DCC1
:105820000BB182468B462D4BABF1547B03EBC50588
:1058300052465B46D5E90001FAF786FE284B0A4638
:105840000B4028498B42824698D8A1F580118B42A3
:1058500086BFDFF898B04FF0FF3A02F1547B002387
:10586000049377E018F0010F06D006EBC503D3E9E7
:105870000023FAF769FE012301354FEA6808CCE7F7
:10588000EDD0C8F1000818F00F020AD0124B03EB5C
:10589000C20350465946D3E90023FAF77FFF8246F8
:1058A0008B465FEA2818DAD0B8F11F0F20DD0024FC
:1058B000A0460794059422234FF0000A4FF0000BF6
:1058C000C9F8003065E700BF5F890008EC8A00086E
:1058D00067890008A8890008208B0008F88A00085A
:1058E0000000F07F0000A07C0000F8FFFFFFEF7FCA
:1058F00018F0100318BF6A23A04D04935046594670
:105900000023B8F1000F00F30A810BB182468B46E9
:10591000049BBBB1CBF30A53C3F16B03002B594675
:1059200010DD1F2B40F30781342BDEBF203B4FF0EF
:10593000FF3202FA03F34FF0000ACCBF4FF05C7B5A
:1059400003EA010B0022002350465946FBF764F896
:105950000028ACD1079B0093059A08992346484636
:1059600001F0E1FD079000283FF408AF069A069B7E
:10597000002AC3F10003A8BF00230E93002422EAEB
:10598000E2731693A046079B4846596801F045FD0F
:10599000059000283FF4F6AE079B1A69023203F126
:1059A0000C0192000C3001F02DFD1EAA1DA94BEC3C
:1059B00010AB4846CDE908AB02F070F81C90002807
:1059C0003FF4E0AE0121484601F039FE8046002850
:1059D0003FF4D8AE1D9E1E9A002EABBF0E9B169BA9
:1059E000169D0E9FACBFF7189D1B049BF61A16441C
:1059F000634B013E9E42C2F1360280F2AF809B1B98
:105A00001F2BA2EB03024FF0010100F39B8001FA70
:105A100003F30F9300230A93BE18049BB742154467
:105A20001D443B46A8BF3346AB42A8BF2B46002BC4
:105A3000C2BFF61AED1AFF1A0E9BBBB141461A46B9
:105A4000484601F09BFE804600283FF49BAE01468D
:105A50001C9A484601F0FCFD0C9000283FF492AEE1
:105A60001C99484601F00DFD0C9B1C93002E7ADC1E
:105A7000069B002B08DD169A0599484601F07EFE2C
:105A8000059000283FF47EAE002D08DD2A460599DA
:105A9000484601F0C1FE059000283FF473AE002F88
:105AA00008DD41463A46484601F0B6FE80460028E9
:105AB0003FF468AE059A1C99484601F01BFF044666
:105AC00000283FF45FAEC3680C930023C3604146D7
:105AD00001F0F6FE002855DA0C9BE3B9BAF1000F8D
